{
  "_format": "hh-sol-artifact-1",
  "contractName": "ConfidentialToken",
  "sourceName": "contracts/tesToken.sol",
  "abi": [
    {
      "inputs": [
        {
          "internalType": "string",
          "name": "name_",
          "type": "string"
        },
        {
          "internalType": "string",
          "name": "symbol_",
          "type": "string"
        }
      ],
      "stateMutability": "nonpayable",
      "type": "constructor"
    },
    {
      "inputs": [
        {
          "internalType": "uint256",
          "name": "requestId",
          "type": "uint256"
        }
      ],
      "name": "ERC7984InvalidGatewayRequest",
      "type": "error"
    },
    {
      "inputs": [
        {
          "internalType": "address",
          "name": "receiver",
          "type": "address"
        }
      ],
      "name": "ERC7984InvalidReceiver",
      "type": "error"
    },
    {
      "inputs": [
        {
          "internalType": "address",
          "name": "sender",
          "type": "address"
        }
      ],
      "name": "ERC7984InvalidSender",
      "type": "error"
    },
    {
      "inputs": [
        {
          "internalType": "address",
          "name": "caller",
          "type": "address"
        }
      ],
      "name": "ERC7984UnauthorizedCaller",
      "type": "error"
    },
    {
      "inputs": [
        {
          "internalType": "address",
          "name": "holder",
          "type": "address"
        },
        {
          "internalType": "address",
          "name": "spender",
          "type": "address"
        }
      ],
      "name": "ERC7984UnauthorizedSpender",
      "type": "error"
    },
    {
      "inputs": [
        {
          "internalType": "euint64",
          "name": "amount",
          "type": "bytes32"
        },
        {
          "internalType": "address",
          "name": "user",
          "type": "address"
        }
      ],
      "name": "ERC7984UnauthorizedUseOfEncryptedAmount",
      "type": "error"
    },
    {
      "inputs": [
        {
          "internalType": "address",
          "name": "holder",
          "type": "address"
        }
      ],
      "name": "ERC7984ZeroBalance",
      "type": "error"
    },
    {
      "inputs": [],
      "name": "HandlesAlreadySavedForRequestID",
      "type": "error"
    },
    {
      "inputs": [],
      "name": "InvalidKMSSignatures",
      "type": "error"
    },
    {
      "inputs": [],
      "name": "NoHandleFoundForRequestID",
      "type": "error"
    },
    {
      "anonymous": false,
      "inputs": [
        {
          "indexed": true,
          "internalType": "euint64",
          "name": "encryptedAmount",
          "type": "bytes32"
        },
        {
          "indexed": false,
          "internalType": "uint64",
          "name": "amount",
          "type": "uint64"
        }
      ],
      "name": "AmountDisclosed",
      "type": "event"
    },
    {
      "anonymous": false,
      "inputs": [
        {
          "indexed": true,
          "internalType": "address",
          "name": "from",
          "type": "address"
        },
        {
          "indexed": true,
          "internalType": "address",
          "name": "to",
          "type": "address"
        },
        {
          "indexed": true,
          "internalType": "euint64",
          "name": "amount",
          "type": "bytes32"
        }
      ],
      "name": "ConfidentialTransfer",
      "type": "event"
    },
    {
      "anonymous": false,
      "inputs": [
        {
          "indexed": true,
          "internalType": "uint256",
          "name": "requestID",
          "type": "uint256"
        }
      ],
      "name": "DecryptionFulfilled",
      "type": "event"
    },
    {
      "anonymous": false,
      "inputs": [
        {
          "indexed": true,
          "internalType": "address",
          "name": "holder",
          "type": "address"
        },
        {
          "indexed": true,
          "internalType": "address",
          "name": "operator",
          "type": "address"
        },
        {
          "indexed": false,
          "internalType": "uint48",
          "name": "until",
          "type": "uint48"
        }
      ],
      "name": "OperatorSet",
      "type": "event"
    },
    {
      "inputs": [],
      "name": "airDrop",
      "outputs": [],
      "stateMutability": "nonpayable",
      "type": "function"
    },
    {
      "inputs": [
        {
          "internalType": "address",
          "name": "account",
          "type": "address"
        }
      ],
      "name": "confidentialBalanceOf",
      "outputs": [
        {
          "internalType": "euint64",
          "name": "",
          "type": "bytes32"
        }
      ],
      "stateMutability": "view",
      "type": "function"
    },
    {
      "inputs": [],
      "name": "confidentialTotalSupply",
      "outputs": [
        {
          "internalType": "euint64",
          "name": "",
          "type": "bytes32"
        }
      ],
      "stateMutability": "view",
      "type": "function"
    },
    {
      "inputs": [
        {
          "internalType": "address",
          "name": "to",
          "type": "address"
        },
        {
          "internalType": "externalEuint64",
          "name": "encryptedAmount",
          "type": "bytes32"
        },
        {
          "internalType": "bytes",
          "name": "inputProof",
          "type": "bytes"
        }
      ],
      "name": "confidentialTransfer",
      "outputs": [
        {
          "internalType": "euint64",
          "name": "",
          "type": "bytes32"
        }
      ],
      "stateMutability": "nonpayable",
      "type": "function"
    },
    {
      "inputs": [
        {
          "internalType": "address",
          "name": "to",
          "type": "address"
        },
        {
          "internalType": "euint64",
          "name": "amount",
          "type": "bytes32"
        }
      ],
      "name": "confidentialTransfer",
      "outputs": [
        {
          "internalType": "euint64",
          "name": "",
          "type": "bytes32"
        }
      ],
      "stateMutability": "nonpayable",
      "type": "function"
    },
    {
      "inputs": [
        {
          "internalType": "address",
          "name": "to",
          "type": "address"
        },
        {
          "internalType": "euint64",
          "name": "amount",
          "type": "bytes32"
        },
        {
          "internalType": "bytes",
          "name": "data",
          "type": "bytes"
        }
      ],
      "name": "confidentialTransferAndCall",
      "outputs": [
        {
          "internalType": "euint64",
          "name": "transferred",
          "type": "bytes32"
        }
      ],
      "stateMutability": "nonpayable",
      "type": "function"
    },
    {
      "inputs": [
        {
          "internalType": "address",
          "name": "to",
          "type": "address"
        },
        {
          "internalType": "externalEuint64",
          "name": "encryptedAmount",
          "type": "bytes32"
        },
        {
          "internalType": "bytes",
          "name": "inputProof",
          "type": "bytes"
        },
        {
          "internalType": "bytes",
          "name": "data",
          "type": "bytes"
        }
      ],
      "name": "confidentialTransferAndCall",
      "outputs": [
        {
          "internalType": "euint64",
          "name": "transferred",
          "type": "bytes32"
        }
      ],
      "stateMutability": "nonpayable",
      "type": "function"
    },
    {
      "inputs": [
        {
          "internalType": "address",
          "name": "from",
          "type": "address"
        },
        {
          "internalType": "address",
          "name": "to",
          "type": "address"
        },
        {
          "internalType": "externalEuint64",
          "name": "encryptedAmount",
          "type": "bytes32"
        },
        {
          "internalType": "bytes",
          "name": "inputProof",
          "type": "bytes"
        }
      ],
      "name": "confidentialTransferFrom",
      "outputs": [
        {
          "internalType": "euint64",
          "name": "transferred",
          "type": "bytes32"
        }
      ],
      "stateMutability": "nonpayable",
      "type": "function"
    },
    {
      "inputs": [
        {
          "internalType": "address",
          "name": "from",
          "type": "address"
        },
        {
          "internalType": "address",
          "name": "to",
          "type": "address"
        },
        {
          "internalType": "euint64",
          "name": "amount",
          "type": "bytes32"
        }
      ],
      "name": "confidentialTransferFrom",
      "outputs": [
        {
          "internalType": "euint64",
          "name": "transferred",
          "type": "bytes32"
        }
      ],
      "stateMutability": "nonpayable",
      "type": "function"
    },
    {
      "inputs": [
        {
          "internalType": "address",
          "name": "from",
          "type": "address"
        },
        {
          "internalType": "address",
          "name": "to",
          "type": "address"
        },
        {
          "internalType": "externalEuint64",
          "name": "encryptedAmount",
          "type": "bytes32"
        },
        {
          "internalType": "bytes",
          "name": "inputProof",
          "type": "bytes"
        },
        {
          "internalType": "bytes",
          "name": "data",
          "type": "bytes"
        }
      ],
      "name": "confidentialTransferFromAndCall",
      "outputs": [
        {
          "internalType": "euint64",
          "name": "transferred",
          "type": "bytes32"
        }
      ],
      "stateMutability": "nonpayable",
      "type": "function"
    },
    {
      "inputs": [
        {
          "internalType": "address",
          "name": "from",
          "type": "address"
        },
        {
          "internalType": "address",
          "name": "to",
          "type": "address"
        },
        {
          "internalType": "euint64",
          "name": "amount",
          "type": "bytes32"
        },
        {
          "internalType": "bytes",
          "name": "data",
          "type": "bytes"
        }
      ],
      "name": "confidentialTransferFromAndCall",
      "outputs": [
        {
          "internalType": "euint64",
          "name": "transferred",
          "type": "bytes32"
        }
      ],
      "stateMutability": "nonpayable",
      "type": "function"
    },
    {
      "inputs": [],
      "name": "decimals",
      "outputs": [
        {
          "internalType": "uint8",
          "name": "",
          "type": "uint8"
        }
      ],
      "stateMutability": "view",
      "type": "function"
    },
    {
      "inputs": [
        {
          "internalType": "euint64",
          "name": "encryptedAmount",
          "type": "bytes32"
        }
      ],
      "name": "discloseEncryptedAmount",
      "outputs": [],
      "stateMutability": "nonpayable",
      "type": "function"
    },
    {
      "inputs": [
        {
          "internalType": "uint256",
          "name": "requestId",
          "type": "uint256"
        },
        {
          "internalType": "bytes",
          "name": "cleartexts",
          "type": "bytes"
        },
        {
          "internalType": "bytes",
          "name": "signatures",
          "type": "bytes"
        }
      ],
      "name": "finalizeDiscloseEncryptedAmount",
      "outputs": [],
      "stateMutability": "nonpayable",
      "type": "function"
    },
    {
      "inputs": [
        {
          "internalType": "address",
          "name": "holder",
          "type": "address"
        },
        {
          "internalType": "address",
          "name": "spender",
          "type": "address"
        }
      ],
      "name": "isOperator",
      "outputs": [
        {
          "internalType": "bool",
          "name": "",
          "type": "bool"
        }
      ],
      "stateMutability": "view",
      "type": "function"
    },
    {
      "inputs": [],
      "name": "name",
      "outputs": [
        {
          "internalType": "string",
          "name": "",
          "type": "string"
        }
      ],
      "stateMutability": "view",
      "type": "function"
    },
    {
      "inputs": [],
      "name": "protocolId",
      "outputs": [
        {
          "internalType": "uint256",
          "name": "",
          "type": "uint256"
        }
      ],
      "stateMutability": "pure",
      "type": "function"
    },
    {
      "inputs": [
        {
          "internalType": "address",
          "name": "operator",
          "type": "address"
        },
        {
          "internalType": "uint48",
          "name": "until",
          "type": "uint48"
        }
      ],
      "name": "setOperator",
      "outputs": [],
      "stateMutability": "nonpayable",
      "type": "function"
    },
    {
      "inputs": [],
      "name": "symbol",
      "outputs": [
        {
          "internalType": "string",
          "name": "",
          "type": "string"
        }
      ],
      "stateMutability": "view",
      "type": "function"
    },
    {
      "inputs": [],
      "name": "tokenURI",
      "outputs": [
        {
          "internalType": "string",
          "name": "",
          "type": "string"
        }
      ],
      "stateMutability": "view",
      "type": "function"
    }
  ],
  "bytecode": "0x6080806040523461044557612783803803809161001c82856106f3565b83398101906040818303126104455780516001600160401b0381116104455782610047918301610716565b60208201519092906001600160401b038111610445576100679201610716565b9060209160405161007884826106f3565b5f81525f606060405161008a816106d8565b82815282878201528260408201520152731364cbbf2cdf5032c47d8226a6f6fbd2afcdacac60606040516100bd816106d8565b73687820221192c5b662b25367f70076a37bc79b6c80825273848b0066793bcc60346da1f49049357399b8d59588830181905273a02cda4ca3a71d7c46997716f4283aa851c288126040840181905293909201939093525f5160206127635f395f51905f5280546001600160a01b031990811690941790555f5160206127435f395f51905f528054841690911790557f9e7b61f58c47dc699ac88507c4f5bb9f121c03808c5676a8078fe583e46497028054831690911790557f9e7b61f58c47dc699ac88507c4f5bb9f121c03808c5676a8078fe583e46497038054909116731364cbbf2cdf5032c47d8226a6f6fbd2afcdacac17905582516001600160401b03811161054f57600354600181811c911680156106ce575b8682101461053157601f811161068a575b508493601f82116001146106285793819293945f9261061d575b50508160011b915f199060031b1c1916176003555b81516001600160401b03811161054f57600454600181811c91168015610613575b8582101461053157601f81116105cf575b508392601f821160011461056e57928192935f92610563575b50508160011b915f199060031b1c1916176004555b80516001600160401b03811161054f57600554600181811c91168015610545575b8482101461053157601f81116104ed575b508291601f821160011461048d579181925f92610482575b50508160011b915f199060031b1c1916176005555b620f4240906102e764174876e80061076b565b916103e8026001600160401b03811690810361046e576103096103149161076b565b806006553090610840565b33159081159161045b578061032b846002546108aa565b6103389591953082610840565b60025560646103456107ed565b5f5160206127435f395f51905f5254604051637702dcff60e01b8152600481019890985260248801939093526044870152859182905f906001600160a01b03165af1928315610450575f9361041d575b50335f525f81525f6103ab846040832054610a35565b916103b63084610840565b6103c03384610840565b3382525260405f205561040e575b6103d83082610840565b60405190335f7f67500e8d0ed826d2194f514dd0d8124f35648ab6e3fb5e6ed867134cffe661e98180a4611c899081610aba8239f35b6104183382610840565b6103ce565b9080935081813d8311610449575b61043581836106f3565b810103126104455751915f610395565b5f80fd5b503d61042b565b6040513d5f823e3d90fd5b638d51880160e01b5f525f60045260245ffd5b634e487b7160e01b5f52601160045260245ffd5b015190505f806102bf565b601f1982169260055f52845f20915f5b868682106104d757505083600195106104bf575b505050811b016005556102d4565b01515f1960f88460031b161c191690555f80806104b1565b600184958293958501518155019401920161049d565b60055f52835f20601f830160051c810191858410610527575b601f0160051c01905b81811061051c57506102a7565b5f815560010161050f565b9091508190610506565b634e487b7160e01b5f52602260045260245ffd5b90607f1690610296565b634e487b7160e01b5f52604160045260245ffd5b015190505f80610260565b601f1982169360045f52855f20915f5b878782106105b95750508360019596106105a1575b505050811b01600455610275565b01515f1960f88460031b161c191690555f8080610593565b600184958293958501518155019401920161057e565b60045f52845f20601f830160051c810191868410610609575b601f0160051c01905b8181106105fe5750610247565b5f81556001016105f1565b90915081906105e8565b90607f1690610236565b015190505f80610200565b601f1982169460035f52865f20915f5b888882106106745750508360019596971061065c575b505050811b01600355610215565b01515f1960f88460031b161c191690555f808061064e565b6001849582939585015181550194019201610638565b60035f52855f20601f830160051c8101918784106106c4575b601f0160051c01905b8181106106b957506101e6565b5f81556001016106ac565b90915081906106a3565b90607f16906101d5565b608081019081106001600160401b0382111761054f57604052565b601f909101601f19168101906001600160401b0382119082101761054f57604052565b81601f82011215610445578051906001600160401b03821161054f576040519261074a601f8401601f1916602001856106f3565b8284526020838301011161044557815f9260208093018386015e8301015290565b5f5160206127435f395f51905f5254604051639cd07acb60e01b8152600481019290925260056024830152602090829060449082905f906001600160a01b03165af1908115610450575f916107be575090565b90506020813d6020116107e5575b816107d9602093836106f3565b81010312610445575190565b3d91506107cc565b5f5160206127435f395f51905f5254604051639cd07acb60e01b81525f60048201819052600560248301529091602091839160449183916001600160a01b03165af1908115610450575f916107be575090565b5f5160206127635f395f51905f52546001600160a01b031691823b1561044557604051635ca4b5b160e11b815260048101929092526001600160a01b03166024820152905f908290604490829084905af180156104505761089e5750565b5f6108a8916106f3565b565b91909180156109b0576108be5f9382610a35565b80801561099e575b602090606460018060a01b035f5160206127435f395f51905f525416916040519788938492631391547f60e01b845260048401528760248401528160448401525af1938415610450575f94610969575b506020906064855f60018060a01b035f5160206127435f395f51905f5254166040519687958694637702dcff60e01b86526004860152602485015260448401525af1908115610450575f916107be575090565b9093506020813d602011610996575b81610985602093836106f3565b810103126104455751926020610916565b3d9150610978565b5060206109a96107ed565b90506108c6565b505f5160206127435f395f51905f5254604051639cd07acb60e01b8152600160048201525f602482018190529091602091839160449183916001600160a01b03165af1908115610450575f91610a0557509190565b90506020813d602011610a2d575b81610a20602093836106f3565b8101031261044557519190565b3d9150610a13565b908115610aa9575b8015610a97575b602090606460018060a01b035f5160206127435f395f51905f525416935f604051958694859363022f65e760e31b8552600485015260248401528160448401525af1908115610450575f916107be575090565b506020610aa26107ed565b9050610a44565b9050610ab36107ed565b90610a3d56fe6080806040526004361015610012575f80fd5b5f905f3560e01c90816306fdde0314610d06575080632fb74e6214610cbb578063313ce56714610ca0578063344ff10114610c6957806334c4574314610b695780633c130d9014610aac578063537d3c5014610a545780635409522714610a365780635bebed7e146109f657806395d89b41146108e5578063a573a9f6146106b1578063b6363cf21461067a578063c535803c1461040e578063c7b8a75e146103a0578063ca5d088014610374578063d4febb96146102e2578063da1f12ab146102c5578063de64211914610246578063e064b9bb146101d25763eb3155b5146100fa575f80fd5b346101cf5760603660031901126101cf5761014f610116610e1b565b61011e610e31565b60443591610136338461013133826117b6565b610f45565b61014a33826101453382610f8c565b610f18565b6110e9565b5f516020611c3d5f395f51905f52546001600160a01b0316803b156101cd57826040518092630f8e573b60e21b825281838161018f338960048401611272565b03925af180156101c2576101a9575b602082604051908152f35b6101b4838092610e74565b6101be578161019e565b5080fd5b6040513d85823e3d90fd5b825b80fd5b50346101cf5760803660031901126101cf576101ec610e1b565b6101f4610e31565b90606435916001600160401b0383116102425761023c61023461021e61014f953690600401610e47565b61022d33876101453382610f8c565b3691610ec4565b604435610fd8565b916110e9565b8380fd5b50346101cf5760803660031901126101cf57610260610e1b565b6044356001600160401b0381116101cd5761027f903690600401610e47565b606435926001600160401b0384116102c1576102ba6102b26102a861014f963690600401610e47565b9590943691610ec4565b602435610fd8565b903361112a565b8480fd5b50346101cf57806003193601126101cf5760206040516127118152f35b50346101cf5760403660031901126101cf576102fc610e1b565b6024359065ffffffffffff82168092036101cd57338084526001602090815260408086206001600160a01b03949094165f81815294835293819020805465ffffffffffff19168617905551938452919290917f921a218a75d18e8ec5704851e6b234a85725b21a2521ce889622c35dedc1fa1291a380f35b50346101cf57806003193601126101cf5761039c6006546103963315156110cf565b3361128b565b5080f35b50346101cf5760803660031901126101cf576103ba610e1b565b6103c2610e31565b606435916044356001600160401b0384116102c1576103e861014f943690600401610e47565b9390926103fa338461013133826117b6565b61040933826101453382610f8c565b61112a565b50346101cf5760203660031901126101cf57600435610432338261013133826117b6565b60408051906104418183610e74565b600182526020820192601f19820136853761045b83610f6b565b525f516020611c5d5f395f51905f52545f516020611c3d5f395f51905f525485906001600160a01b0316803b156101be578184518092637d6e912360e11b8252602060048301528183816104b2602482018c611821565b03925af1801561065b57610665575b507f9e7b61f58c47dc699ac88507c4f5bb9f121c03808c5676a8078fe583e4649702546001600160a01b0316803b156101be578184518092633263b83b60e01b825285600483015260606024830152818381610520606482018c611821565b6352b9d4fb60e11b604483015203925af1801561065b57610646575b508190525f516020611bfd5f395f51905f52602052818520546106375784525f516020611bfd5f395f51905f5260205283209051916001600160401b03831161062357600160401b83116106235781548383558084106105fd575b5090835260208320835b8381106105e957845f516020611c5d5f395f51905f52545f1981146105d5576001015f516020611c5d5f395f51905f525580f35b634e487b7160e01b82526011600452602482fd5b6001906020845194019381840155016105a1565b828552836020862091820191015b8181106106185750610597565b85815560010161060b565b634e487b7160e01b84526041600452602484fd5b633f06d22b60e01b8552600485fd5b8161065091610e74565b6102c157845f61053c565b84513d84823e3d90fd5b8161066f91610e74565b6102c157845f6104c1565b50346101cf5760403660031901126101cf5760206106a7610699610e1b565b6106a1610e31565b90610f8c565b6040519015158152f35b50346101cf5760603660031901126101cf576004356024356001600160401b0381116101cd576106e5903690600401610efa565b6044356001600160401b03811161024257610704903690600401610efa565b61070d836111e7565b908251918260200192836020116108d1576040018093116108bd57602093926107c5926107b3888794610760868060405180988c80519e8f91019e8f8585015e8201908382015203018088520186610e74565b6107d760018060a01b037f9e7b61f58c47dc699ac88507c4f5bb9f121c03808c5676a8078fe583e4649703541694604051988997889687956378542ead60e01b8752606060048801526064870190611821565b85810360031901602487015290610df7565b83810360031901604485015290610df7565b03925af19081156108b2578591610883575b501561087457602090837f1af0453083661051f6e56e5c070792320652e612154bf9af8637bb1e7655b99d8680a28051810103126101cd5751906001600160401b0382168092036101cd5760206108686108637f83bbbc07896439e5d950a6cead04cbc676180af7a61cecf43f5296475057f571936111e7565b610f6b565b5192604051908152a280f35b63cf6c44e960e01b8452600484fd5b6108a5915060203d6020116108ab575b61089d8183610e74565b81019061179e565b5f6107e9565b503d610893565b6040513d87823e3d90fd5b634e487b7160e01b86526011600452602486fd5b634e487b7160e01b87526011600452602487fd5b50346101cf57806003193601126101cf576040519080600454908160011c916001811680156109ec575b6020841081146109d8578386529081156109b15750600114610954575b6109508461093c81860382610e74565b604051918291602083526020830190610df7565b0390f35b600481527f8a35acfbc15ff81a39ae7d344fd709f28e8600b4aa8c65c6b64bfe7fe36bd19b939250905b8082106109975750909150810160200161093c8261092c565b91926001816020925483858801015201910190929161097e565b60ff191660208087019190915292151560051b8501909201925061093c915083905061092c565b634e487b7160e01b83526022600452602483fd5b92607f169261090f565b50346101cf5760403660031901126101cf576020610a2e610a15610e1b565b60243590610a28338361013133826117b6565b336110e9565b604051908152f35b50346101cf57806003193601126101cf576020600254604051908152f35b50346101cf5760603660031901126101cf57610a6e610e1b565b602435604435916001600160401b03831161024257610a9461014f933690600401610e47565b929091610aa6338361013133826117b6565b3361112a565b50346101cf57806003193601126101cf576040519080600554908160011c91600181168015610b5f575b6020841081146109d8578386529081156109b15750600114610b02576109508461093c81860382610e74565b600581527f036b6384b5eca791c62761152d0c79bb0604c104a5fb6f4eb0703f3154bb3db0939250905b808210610b455750909150810160200161093c8261092c565b919260018160209254838588010152019101909291610b2c565b92607f1692610ad6565b34610c655760a0366003190112610c6557610b82610e1b565b610b8a610e31565b906064356001600160401b038111610c6557610baa903690600401610e47565b9091608435936001600160401b038511610c6557610be7610234610bd5610bed973690600401610e47565b96909561022d33876101453382610f8c565b9161112a565b5f516020611c3d5f395f51905f52546001600160a01b031690813b15610c65575f6040518093630f8e573b60e21b8252818381610c2e338860048401611272565b03925af1918215610c5a57602092610c4a575b50604051908152f35b5f610c5491610e74565b5f610c41565b6040513d5f823e3d90fd5b5f80fd5b34610c65576020366003190112610c65576001600160a01b03610c8a610e1b565b165f525f602052602060405f2054604051908152f35b34610c65575f366003190112610c6557602060405160068152f35b34610c65576060366003190112610c6557610cd4610e1b565b6044356001600160401b038111610c6557602091610cff6102b261022d610a2e943690600401610e47565b90336110e9565b34610c65575f366003190112610c65575f6003548060011c90600181168015610ded575b602083108114610dd957828552908115610db55750600114610d57575b6109508361093c81850382610e74565b60035f9081527fc2575a0e9e593c00f959f8c92f12db2869c3395a3b0502d05e2516446f71f85b939250905b808210610d9b5750909150810160200161093c610d47565b919260018160209254838588010152019101909291610d83565b60ff191660208086019190915291151560051b8401909101915061093c9050610d47565b634e487b7160e01b5f52602260045260245ffd5b91607f1691610d2a565b805180835260209291819084018484015e5f828201840152601f01601f1916010190565b600435906001600160a01b0382168203610c6557565b602435906001600160a01b0382168203610c6557565b9181601f84011215610c65578235916001600160401b038311610c655760208381860195010111610c6557565b90601f801991011681019081106001600160401b03821117610e9557604052565b634e487b7160e01b5f52604160045260245ffd5b6001600160401b038111610e9557601f01601f191660200190565b929192610ed082610ea9565b91610ede6040519384610e74565b829481845281830111610c65578281602093845f960137010152565b9080601f83011215610c6557816020610f1593359101610ec4565b90565b15610f21575050565b630f3e596760e31b5f9081526001600160a01b039182166004529116602452604490fd5b15610f4e575050565b6367cfe80560e01b5f5260045260018060a01b031660245260445ffd5b805115610f785760200190565b634e487b7160e01b5f52603260045260245ffd5b6001600160a01b03828116911690811491908215610fa957505090565b9091505f52600160205260405f209060018060a01b03165f5260205265ffffffffffff60405f20541642111590565b6110279160209160018060a01b035f516020611c1d5f395f51905f525416905f60405180968195829463196d0b9b60e01b84526004840152336024840152608060448401526084830190610df7565b6005606483015203925af1908115610c5a575f9161109d575b505f516020611c3d5f395f51905f52546001600160a01b0316803b15610c65575f6040518092630f8e573b60e21b8252818381611081338960048401611272565b03925af18015610c5a57611093575090565b5f610f1591610e74565b90506020813d6020116110c7575b816110b860209383610e74565b81010312610c6557515f611040565b3d91506110ab565b156110d657565b638d51880160e01b5f525f60045260245ffd5b91906001600160a01b0383161561111757610f15926111126001600160a01b03831615156110cf565b6113ea565b63ee457ebf60e01b5f525f60045260245ffd5b9361113a611144929384876110e9565b93848487336115cd565b90602061114f611a7c565b606460018060a01b035f516020611c1d5f395f51905f525416945f6040519687948593637702dcff60e01b8552600485015260248401528860448401525af1918215610c5a575f926111b1575b5090610f15936111ab926113ea565b906116eb565b91506020823d6020116111df575b816111cc60209383610e74565b81010312610c6557905190610f1561119c565b3d91506111bf565b805f525f516020611bfd5f395f51905f5260205260405f205415611263575f525f516020611bfd5f395f51905f5260205260405f20604051808260208294549384815201905f5260205f20925f5b81811061124a575050610f1592500382610e74565b8454835260019485019486945060209093019201611235565b63d66ca67560e01b5f5260045ffd5b9081526001600160a01b03909116602082015260400190565b9190602061129b8260025461197d565b9092906112a83082611b9c565b60025560646112b5611a7c565b5f516020611c1d5f395f51905f5254604051637702dcff60e01b8152600481019690965260248601939093526044850152839182905f906001600160a01b03165af1908115610c5a575f916113b8575b509182906001600160a01b038116908115801561137e57611328846002546116eb565b6113323082611b9c565b6002555b1561136e575b506113473083611b9c565b5f7f67500e8d0ed826d2194f514dd0d8124f35648ab6e3fb5e6ed867134cffe661e98180a4565b6113789083611b9c565b5f61133c565b825f525f6020526113938460405f20546119f8565b61139d3082611b9c565b6113a78382611b9c565b835f525f60205260405f2055611336565b90506020813d6020116113e2575b816113d360209383610e74565b81010312610c6557515f611305565b3d91506113c6565b6001600160a01b0381168015949392851561157557602061140d8560025461197d565b95909561141a3082611b9c565b6002555b6064611428611a7c565b5f516020611c1d5f395f51905f5254604051637702dcff60e01b8152600481019990995260248901939093526044880152869182905f906001600160a01b03165af1938415610c5a575f94611541575b50839560018060a01b03821693841591825f146115075761149b876002546116eb565b6114a53082611b9c565b6002555b156114f7575b50156114e7575b506114c13084611b9c565b7f67500e8d0ed826d2194f514dd0d8124f35648ab6e3fb5e6ed867134cffe661e95f80a4565b6114f19084611b9c565b5f6114b6565b6115019086611b9c565b5f6114af565b855f525f60205261151c8760405f20546119f8565b6115263082611b9c565b6115308582611b9c565b865f525f60205260405f20556114a9565b9093506020813d60201161156d575b8161155d60209383610e74565b81010312610c655751925f611478565b3d9150611550565b815f525f60205260405f205480156115ba5761159385602092611854565b9590956115a03082611b9c565b6115aa8682611b9c565b845f525f835260405f205561141e565b826317fe473760e21b5f5260045260245ffd5b939594929390929091803b156116da576040516346083bfd60e01b81526001600160a01b0393841660048201529383166024850152604484019490945260806064840152608483018190529216939091602091839160a4918391908190838501375f838284010152601f801991011681010301815f875af15f91816116a6575b506116a257823d1561169b573d61166381610ea9565b906116716040519283610e74565b81523d5f602083013e5b805190816116965782638d51880160e01b5f5260045260245ffd5b602001fd5b606061167b565b9150565b9091506020813d6020116116d2575b816116c260209383610e74565b81010312610c655751905f61164d565b3d91506116b5565b50505050509050610f156001611aca565b90811561178e575b801561177c575b602090606460018060a01b035f516020611c1d5f395f51905f525416935f60405195869485936303056db360e31b8552600485015260248401528160448401525af1908115610c5a575f9161174d575090565b90506020813d602011611774575b8161176860209383610e74565b81010312610c65575190565b3d915061175b565b506020611787611a7c565b90506116fa565b9050611798611a7c565b906116f3565b90816020910312610c6557518015158103610c655790565b5f516020611c3d5f395f51905f52546040516382027b6d60e01b81529260209284926001600160a01b031691839182916117f39160048401611272565b03915afa908115610c5a575f91611808575090565b610f15915060203d6020116108ab5761089d8183610e74565b90602080835192838152019201905f5b81811061183e5750505090565b8251845260209384019390920191600101611831565b9190918015806118c65750602061187561186e8584611b18565b94836116eb565b91606460018060a01b035f516020611c1d5f395f51905f525416935f6040519586948593637702dcff60e01b85528a6004860152602485015260448401525af1908115610c5a575f9161174d575090565b9092801561196d578391611959575b602090606460018060a01b035f516020611c1d5f395f51905f525416935f604051958694859363f77f3f1d60e01b8552600485015260248401528160448401525af1908115610c5a575f9161192957509190565b90506020813d602011611951575b8161194460209383610e74565b81010312610c6557519190565b3d9150611937565b90506020611965611a7c565b9190506118d5565b50506119796001611aca565b9190565b919082156119ec5761198f90836119f8565b602061199b8483611b18565b93606460018060a01b035f516020611c1d5f395f51905f525416935f6040519586948593637702dcff60e01b85528a6004860152602485015260448401525af1908115610c5a575f9161174d575090565b91506119796001611aca565b908115611a6c575b8015611a5a575b602090606460018060a01b035f516020611c1d5f395f51905f525416935f604051958694859363022f65e760e31b8552600485015260248401528160448401525af1908115610c5a575f9161174d575090565b506020611a65611a7c565b9050611a07565b9050611a76611a7c565b90611a00565b5f516020611c1d5f395f51905f5254604051639cd07acb60e01b81525f6004820152906001600160a01b0316816044815f602094600560248401525af1908115610c5a575f9161174d575090565b5f516020611c1d5f395f51905f5254604051639cd07acb60e01b815260048101929092526001600160a01b0316816044815f6020948160248401525af1908115610c5a575f9161174d575090565b908115611b8c575b8015611b7a575b602090606460018060a01b035f516020611c1d5f395f51905f525416935f6040519586948593631391547f60e01b8552600485015260248401528160448401525af1908115610c5a575f9161174d575090565b506020611b85611a7c565b9050611b27565b9050611b96611a7c565b90611b20565b5f516020611c3d5f395f51905f52546001600160a01b031691823b15610c6557611bdf925f9283604051809681958294635ca4b5b160e11b845260048401611272565b03925af18015610c5a57611bf05750565b5f611bfa91610e74565b56fe878245876662ba28a480c5ea71726db859fb50222b0a3d7cbbc21cfa336faf019e7b61f58c47dc699ac88507c4f5bb9f121c03808c5676a8078fe583e46497019e7b61f58c47dc699ac88507c4f5bb9f121c03808c5676a8078fe583e4649700878245876662ba28a480c5ea71726db859fb50222b0a3d7cbbc21cfa336faf00a164736f6c634300081b000a9e7b61f58c47dc699ac88507c4f5bb9f121c03808c5676a8078fe583e46497019e7b61f58c47dc699ac88507c4f5bb9f121c03808c5676a8078fe583e4649700",
  "linkReferences": {},
  "deployedLinkReferences": {}
}