{
  "_format": "hh-sol-artifact-1",
  "contractName": "ObolPriceOracle",
  "sourceName": "contracts/ObolPriceOracle.sol",
  "abi": [
    {
      "inputs": [
        {
          "internalType": "address",
          "name": "_relayer",
          "type": "address"
        },
        {
          "internalType": "uint256",
          "name": "_staleTtl",
          "type": "uint256"
        }
      ],
      "stateMutability": "nonpayable",
      "type": "constructor"
    },
    {
      "anonymous": false,
      "inputs": [
        {
          "indexed": false,
          "internalType": "uint128",
          "name": "price6",
          "type": "uint128"
        },
        {
          "indexed": false,
          "internalType": "uint64",
          "name": "epoch",
          "type": "uint64"
        },
        {
          "indexed": false,
          "internalType": "uint256",
          "name": "ts",
          "type": "uint256"
        }
      ],
      "name": "PriceUpdated",
      "type": "event"
    },
    {
      "inputs": [],
      "name": "epoch",
      "outputs": [
        {
          "internalType": "uint64",
          "name": "",
          "type": "uint64"
        }
      ],
      "stateMutability": "view",
      "type": "function"
    },
    {
      "inputs": [],
      "name": "isFresh",
      "outputs": [
        {
          "internalType": "bool",
          "name": "",
          "type": "bool"
        }
      ],
      "stateMutability": "view",
      "type": "function"
    },
    {
      "inputs": [],
      "name": "lastTs",
      "outputs": [
        {
          "internalType": "uint256",
          "name": "",
          "type": "uint256"
        }
      ],
      "stateMutability": "view",
      "type": "function"
    },
    {
      "inputs": [],
      "name": "price6",
      "outputs": [
        {
          "internalType": "uint128",
          "name": "",
          "type": "uint128"
        }
      ],
      "stateMutability": "view",
      "type": "function"
    },
    {
      "inputs": [],
      "name": "relayer",
      "outputs": [
        {
          "internalType": "address",
          "name": "",
          "type": "address"
        }
      ],
      "stateMutability": "view",
      "type": "function"
    },
    {
      "inputs": [
        {
          "internalType": "uint128",
          "name": "_price6",
          "type": "uint128"
        },
        {
          "internalType": "uint64",
          "name": "_epoch",
          "type": "uint64"
        }
      ],
      "name": "setPrice",
      "outputs": [],
      "stateMutability": "nonpayable",
      "type": "function"
    },
    {
      "inputs": [],
      "name": "staleTtl",
      "outputs": [
        {
          "internalType": "uint256",
          "name": "",
          "type": "uint256"
        }
      ],
      "stateMutability": "view",
      "type": "function"
    }
  ],
  "bytecode": "0x60c03461008957601f6103db38819003918201601f19168301916001600160401b0383118484101761008d578084926040948552833981010312610089578051906001600160a01b038216820361008957602001519060805260a05260405161033990816100a2823960805181818161010b01526101f3015260a0518181816080015261015f0152f35b5f80fd5b634e487b7160e01b5f52604160045260245ffdfe6080806040526004361015610012575f80fd5b5f3560e01c90816311b8a7e6146101b5575080634e4f8289146101985780636268ceaa1461013a5780638406c079146100f6578063865b5548146100cf578063900cf0cf146100a757639c702ac614610069575f80fd5b346100a3575f3660031901126100a35760206040517f00000000000000000000000000000000000000000000000000000000000000008152f35b5f80fd5b346100a3575f3660031901126100a35760206001600160401b035f5460801c16604051908152f35b346100a3575f3660031901126100a3575f546040516001600160801b039091168152602090f35b346100a3575f3660031901126100a3576040517f00000000000000000000000000000000000000000000000000000000000000006001600160a01b03168152602090f35b346100a3575f3660031901126100a357600154420342811161018457602090604051907f000000000000000000000000000000000000000000000000000000000000000010158152f35b634e487b7160e01b5f52601160045260245ffd5b346100a3575f3660031901126100a3576020600154604051908152f35b346100a35760403660031901126100a3576004356001600160801b038116908190036100a357602435906001600160401b038216928383036100a3577f00000000000000000000000000000000000000000000000000000000000000006001600160a01b03163303610300575080156102ce575f54926001600160401b038460801c1681111561029b577fd35a79d7e22ebb5a2217fadf7a10a50a1e6bdd830f7290e587a2557b2c7892f993826060946001600160401b0360801b9060801b169160018060c01b03191617175f55426001556040519182526020820152426040820152a1005b60405162461bcd60e51b815260206004820152600b60248201526a0a6a882988abe8aa09e86960ab1b6044820152606490fd5b60405162461bcd60e51b815260206004820152600a6024820152695a45524f5f505249434560b01b6044820152606490fd5b62461bcd60e51b81526020600482015260076024820152662922a620aca2a960c91b6044820152606490fdfea164736f6c634300081b000a",
  "linkReferences": {},
  "deployedLinkReferences": {}
}